:100000000C946E000C9496000C9496000C94B60D13
:100010000C94B60D0C94B60D0C9496000C949600AE
:100020000C9496000C9496000C9496000C94C805C1
:100030000C9496000C9496000C9496000C949600E8
:100040000C946C0D0C9496000C94800B0C945A0B31
:100050000C9496000C9496000C9496000C949600C8
:100060000C94DE0E0C949600AB04D2049904EC04BC
:100070000C05400534054005400540056F05BB04EF
:1000800000000000240027002A00000000002500D6
:1000900028002B00000000080002010000030407F4
:1000A0000000000000000000000000002300260007
:1000B00029000404040404040404020202020202EB
:1000C000030303030303010204081020408001021C
:1000D00004081020010204081020141611241FBE69
:1000E000CFEFD8E0DEBFCDBF12E0A0E0B1E0EEEB95
:1000F000F1E302C005900D92AC30B107D9F725E0CD
:10010000ACE0B2E001C01D92A333B207E1F710E00A
:10011000CEE6D0E004C02197FE010E949617CD36AE
:10012000D107C9F70E9446120C94DD180C94000008
:100130008091E20290E02091E302821B91090895F0
:10014000089580E090E00895A82FB0E0A45ABD4F34
:100150009C91292F30E0F901EE0FFF1F2E0F3F1F5A
:10016000F901E55FFA4FE081F0E09F01220F331FB4
:10017000E20FF31FEA51FB4F80818F7B80838091D8
:100180005A02981306C0992379F0915090935A021D
:100190000BC0882349F0E0915B02EF5FE0935B02C4
:1001A000F0E0E55FFD4F90838FEF8C930895CF9241
:1001B000DF92EF92FF920F931F93CF93DF937C0117
:1001C000262F972F8A0180915903882391F0C62FFB
:1001D000D72F6E01C40ED51ECC15DD0571F06991C7
:1001E000D701ED91FC910190F081E02DC7010995B7
:1001F000F3CF642F822F0E940C10C801DF91CF91A2
:100200001F910F91FF90EF90DF90CF900895CF93C3
:10021000DF931F92CDB7DEB7698320915903222364
:10022000D1F020917C03203240F021E030E0FC014D
:100230003383228380E090E015C080915A03E82F39
:10024000F0E0E55AFC4F998190838F5F80935A03C9
:1002500080937C0305C061E0CE0101960E940C10E2
:1002600081E090E00F90DF91CF910895DF92EF92BF
:10027000FF920F931F93CF93DF93EC01D62E7A0159
:10028000890188818C3008F06AC061E08D2D0E9460
:10029000DF0C8881E82FF0E09F01220F331FE20F6F
:1002A000F31FEA51FB4F9D2D9F732081207CD22E9E
:1002B000D92AD08260E272E0AB014E195F0957FF84
:1002C00002C04D5F5F4F55954795559547954983BA
:1002D00040E659E09A01201B310B37FF02C02D5F29
:1002E0003F4F35952795359527952A836CE00E94D9
:1002F0008A179CE0899FB001112440E050E09A01E8
:10030000260F371FF901EE0FFF1F2E0F3F1FF901B8
:10031000EA51FB4F908196FD16C04F5F5F4F4C3006
:10032000510569F781110FC01092800082E080931F
:1003300081001092850010928400B19A80916F0024
:10034000826080936F00E881F0E0CF01880F991FF1
:10035000E80FF91FEA51FB4F808180648083888118
:10036000DF91CF911F910F91FF90EF90DF90089553
:10037000BF92CF92DF92EF92FF920F931F93CF9392
:10038000DF9300D0CDB7DEB7833008F081C0282FCF
:10039000220F220F220F285F253108F024E1B62E0C
:1003A000F82EE82EEE0CEE0CEE0C30E0CC24C394CC
:1003B000E21610F58EEF8E0D8231D8F40E2D10E07E
:1003C000F801E356FB4F9081923098F4DD24D394EA
:1003D0008C2D8B2109F4D12C000F111F913009F0C5
:1003E00043C03C29F801EF54FB4F8D2D90E09183E1
:1003F0008083CC0CE394DCCFF1100AC03C7FF894EE
:100400008BB1632F609568233B21632B6BB92AC0A6
:1004100081E0F8121AC02B2D2323F89495B1832F75
:100420008F7380958923922F9F73892B85B988B10B
:1004300022952695269523703295369536953370FC
:1004400030958323822B88B90DC03F70F89488B112
:10045000632F660F660F609568233B21330F330FC0
:10046000632B68B9789414C0DD2009F4BBCFF80180
:10047000EF54FB4F80819181019709F4B3CF62E083
:100480008E2D2A8339830E94DF0C2A813981AACFDD
:100490000F900F90DF91CF911F910F91FF90EF90F0
:1004A000DF90CF90BF9008956F927F928F929F922E
:1004B000AF92BF92CF92DF92EF92FF920F931F9372
:1004C000CF93DF931F92CDB7DEB7982F3B018431D6
:1004D00008F004C1082F10E0F801E356FB4F8081BB
:1004E000833009F490C0843009F0F8C09250923102
:1004F00008F0EDC0F801E45AFD4FE080F12C6701EF
:10050000CC0CDD1C603282E078070CF042C077FD35
:1005100005C0653B710524F4DB0104C0A0E001C007
:10052000A4EBB0E0F601EE0DFF1DE55FFA4F81810F
:1005300028E830E04901881A910887FD9394880CD7
:10054000991C880C991C092C000CAA08BB088281F4
:1005500028E532E0281B310987FD3395220F331F30
:10056000220F331FA901330F660B770B9A01AB01E2
:10057000281939094A095B090E94511724EB30E018
:1005800040E050E00E942717820E931EA41EB51E65
:1005900001C04B01F601EE0DFF1DE55FFA4F208112
:1005A0002C3008F094C0318188E890E0831B9109D9
:1005B00037FD9395880F991F880F991F8816990604
:1005C00084F0828148E552E0481B510987FD53952C
:1005D000440F551F440F551FC401481559050CF40D
:1005E000CA010297880F991F4FB7F89430E0F901BC
:1005F000EE0FFF1F2E0F3F1FF901EA51FB4F9283B1
:1006000081834FBF64C0933049F08BEF890F8230F4
:1006100028F087EF890F833008F059C061E0892FF7
:1006200099830E94DF0C99816114710411F460E0D8
:1006300005C08FEF6816710429F461E0892F0E94CC
:10064000930C45C0F801EC56FF4FE491E330F9F00C
:1006500048F4E130B9F0E230A1F584B5806284BDA0
:1006600068BC35C0E730E9F0E83019F1E43049F50D
:100670008091800080628093800070928B006092F5
:100680008A0025C084B5806884BD67BC20C0809185
:10069000800080688093800070928900609288005A
:1006A00016C08091B00080688093B0006092B30063
:1006B0000EC08091B00080628093B0006092B40060
:1006C00006C080E8681671040CF0B7CFB0CF000FF9
:1006D000111FF801EF54FB4F718260820F90DF9180
:1006E000CF911F910F91FF90EF90DF90CF90BF902F
:1006F000AF909F908F907F906F9008959EEF980F8E
:10070000923180F4E82FF0E0DF01A356BB4F9C91BB
:10071000913041F4EE0FFF1FEF54FB4F6083718364
:100720000C94930C0895DB0190915A029C30A8F52B
:1007300030915B02682F70E0332369F0E32FF0E023
:10074000E55FFD4F8081FB01E45AFD4F808331500E
:1007500030935B0207C0FB01E45AFD4F90839F5F1B
:1007600090935A02FB01E45AFD4F808190E09C0176
:10077000220F331F820F931F1A161B0634F4141610
:1007800015061CF49A01AD0104C020E639E040E2F0
:1007900052E0855F9A4F0C9436018DE291E00C9403
:1007A000E510CF93863080F54091B8025091B902A0
:1007B00021E030E0672B81F4B90102C0660F771F9A
:1007C0008A95E2F7CB0180959095842395239093A9
:1007D000B9028093B80218C0082E02C0220F331F3E
:1007E0000A94E2F7242B352B3093B9022093B802F8
:1007F00090917402911108C0C82F0E941B0DBC017A
:100800008C2FCF910C943410CF9108958F929F929A
:10081000AF92BF92CF92DF92EF92FF920F931F930E
:10082000CF93DF931F92CDB7DEB7C82ED12C9601A0
:10083000265E3B4F4901F901ED57FF4F90819F37ED
:1008400009F44DC1963041F490917302992321F03F
:100850006630710509F025C17B01182F0EEF080FD6
:100860000231F8F464307105E1F0F601E45AFD4F0D
:1008700080818C30B0F490E0FC01EE0FFF1F8E0FF2
:100880009F1FFC01E55FFA4F808190E0FC01EE0FB5
:10089000FF1F8E0F9F1FFC01EA51FB4F808186FDD9
:1008A00006C192EF910F963068F461E070E082E04B
:1008B000E816F10411F060E070E0892F99830E943E
:1008C000D1039981023118F5E12FE695E695E69579
:1008D000812F8770F0E0EA57FD4FE114F10421F019
:1008E0002BE0E216F10449F421E030E001C0220FD0
:1008F0008A95EAF78081282B09C021E030E001C009
:10090000220F8A95EAF720958081282320835601BB
:10091000AA0CBB1CF501EF54FB4F118210823CE086
:10092000E316F10408F0ACC0F701EC5CFF4F0C9447
:100930009617963008F0D3C0023120F460E0812F82
:100940000E94DF0CF401ED57FF4F80818F3709F4CF
:10095000C6C082E093C0023108F0C1C060E0812FC0
:100960000E94DF0CF401ED57FF4F80818F3709F4AF
:10097000B6C01082B4C0023108F0B1C062E0812F6D
:100980000E94DF0CF401ED57FF4F80818F3711F08B
:100990008BE08083F501EF54FB4F81E090E0918381
:1009A00080839DC0023108F09AC0F401ED57FF4FDB
:1009B0008081833021F460E0812F0E94930C61E0FC
:1009C000812F0E94DF0CF401ED57FF4F80818F379C
:1009D00009F485C081E052C0133049F08BEF810FDC
:1009E000823028F087EF810F833008F078C061E013
:1009F000812F0E94DF0C61E0812F0E94DF0C60E0FC
:100A0000812F0E94930CF401ED57FF4F80818F37A7
:100A100009F465C083E032C0023108F060C0F4011F
:100A2000ED57FF4F80818F3711F084E08083F6010E
:100A3000E45AFD4F80818F3FF1F190E0FC01EE0F11
:100A4000FF1F8E0F9F1FFC01E55FFA4F808190E032
:100A5000FC01EE0FFF1F8E0F9F1FFC01EA51FB4FA1
:100A6000808186FD3CC027C012511230C0F5F401D0
:100A7000ED57FF4F80818F3791F186E080832FC043
:100A800081E491E00F90DF91CF911F910F91FF9042
:100A9000EF90DF90CF90BF90AF909F908F900C948D
:100AA000E510109273029FEF90930001D5CE812F35
:100AB0000E94A400F6CE4FEF5FEF6FEF7FEF812F24
:100AC0000F90DF91CF911F910F91FF90EF90DF90EA
:100AD000CF90BF90AF909F908F900C9493030F9006
:100AE000DF91CF911F910F91FF90EF90DF90CF900A
:100AF000BF90AF909F908F9008950F931F93CF93C7
:100B0000DF9381E08093740280917302882329F03F
:100B1000109273028FEF809300011092890210925D
:100B200086021092700210928A021092870210922E
:100B3000710210928B0210928802109272020CE5E0
:100B400012E0C0E0DFEF82EF8C0F863018F462E035
:100B500070E006C08EEF8C0F823128F461E070E007
:100B60008C2F0E940604F801D1938F01CF5FC4310E
:100B700051F71092B9021092B80210925B021092D3
:100B80005A0210927402DF91CF911F910F91089534
:100B90001F920F920FB60F9211242F933F934F93F2
:100BA0005F936F937F938F939F93AF93BF93EF93D5
:100BB000FF938091750287FF05C010928500109207
:100BC00084001BC020917502022E000C330B809113
:100BD0000A0590E02817390784F480917502082EE1
:100BE000000C990BFC01EE0FFF1F8E0F9F1FFC01E5
:100BF000EA51FB4F808186FD15C0809175028F5FA1
:100C00008093750220917502022E000C330B8091A7
:100C10000A0590E028173907C4F4809175028C30DA
:100C200064F113C080917502082E000C990BFC0131
:100C3000EE0FFF1F8E0F9F1FFC01EA51FB4F8081BB
:100C400060E08F730E94930CD8CF809184009091C4
:100C50008500049680349C4918F480E49CE905C022
:100C600080918400909185000496909389008093F0
:100C700088008FEF809375023BC0209184003091F3
:100C8000850080917502082E000C990BFC01EE0F77
:100C9000FF1F8E0F9F1FFC01EA51FB4F8181928144
:100CA000820F931F90938900809388008091750232
:100CB000082E000C990BFC01EE0FFF1F8E0F9F1FDB
:100CC000FC01EA51FB4F808186FF12C080917502C2
:100CD000082E000C990BFC01EE0FFF1F8E0F9F1FBB
:100CE000FC01EA51FB4F808161E08F730E94930CFD
:100CF000FF91EF91BF91AF919F918F917F916F91F4
:100D00005F914F913F912F910F900FBE0F901F90C9
:100D10001895FF920F931F93CF93DF9300D0CDB719
:100D2000DEB7082F10E0F801EA57FD4F9081F62E4C
:100D3000F92200591D4F411104C0F80190819F15FF
:100D400011F12F2D30E03A832983A0915A04B091FC
:100D50005B041097B1F0682FED91FC9111976F70C3
:100D600060690190F081E02DCD01099522E030E02D
:100D7000AE014F5F5F4F62E070E08AE594E00E9451
:100D8000C00DF801F0820F900F90DF91CF911F916D
:100D90000F91FF900895833020F5282F30E0F9015E
:100DA000E757FD4F6083672BE1F0F901EA57FD4FEC
:100DB0009081811103C069B16C7F0FC0813049F40B
:100DC00063B136B140E4349F900111246F73622BFC
:100DD00004C066B16C7366956695692341E00C9416
:100DE00089060895CF92DF92EF92FF920F931F939F
:100DF000CF93DF931F92CDB7DEB7E82E6B01F42EB1
:100E00006F3F8FEF780709F181E080935903E092FB
:100E10007B0310925A0310927C038AED94E029839D
:100E20000E9407012981822F0E945511E0915802EA
:100E3000F0915902E230F10550F0EE0FFF1FEE0F76
:100E4000FF1F35973197F1F702C0C12CD12C80914B
:100E500058038111FCCF2F2D80E28F1508F420E27A
:100E600081E080935803809357039FEF909356033C
:100E700010925503920F9093540380933303809103
:100E800033039E2D990F892B809333038091320376
:100E9000813061F410923203809133038093BB0060
:100EA0008091BC0083FDF8CF85EC01C085EE809376
:100EB000BC00809158038130E1F380915503821783
:100EC00010F420915503A4E3B3E042EC52E0FA01A0
:100ED0008E2F841B821718F48D918193F9CF109275
:100EE000E3022093E2020F2D10E030E00217130717
:100EF0001CF482E591E005C02017310724F48FE649
:100F000091E00E94E510E0921802C0921902C12CF3
:100F1000D12CC016D10634F49091E2028091E30204
:100F2000981312C0F394F3946F2D70E048E152E0EF
:100F300087E70F90DF91CF911F910F91FF90EF9076
:100F4000DF90CF900C9498108AED94E00E94570C9B
:100F5000F601E85EFD4F82838FEFC81AD80AD9CF19
:100F6000CF92DF92EF92FF920F931F93CF93DF9375
:100F700000D000D01F92CDB7DEB7362F8A018D3654
:100F800009F45DC2A0F48334E1F118F4823409F16C
:100F9000B2C2893609F499C28B3609F0ACC280EF2F
:100FA0000E9448118CE60E9448111EEF34C2863719
:100FB00009F457C038F48F3609F4D8C1803709F4E2
:100FC0007FC199C2883709F430C18A3709F4B8C1A2
:100FD00092C2662309F48FC2DA011C9160E070E0CE
:100FE000812F0E940604812F0E94F11069837A8369
:100FF0008B839C83AE014F5F5F4F64E070E082E4BF
:101000002DC0662309F477C2FA01F080118161E0F6
:1010100070E08F2D0E94060460E070E0812F0E9436
:10102000060461E08F2D0E94930C83E290E001970B
:10103000F1F760E08F2D0E94930C812F0E94F11038
:1010400024E930E040E050E00E9427173A832983EA
:10105000AE014F5F5F4F62E070E083E40E94981042
:101060004AC2DA0111962C91922F987125FF03C084
:101070008BE891E05BC0FA01808141E026FB2227EA
:1010800020F92427983089F168F4911134C24093F3
:10109000590380937B0310925A0310927C03E2E081
:1010A000FE2E07C0903109F43BC0983109F46FC09F
:1010B00022C2F31690F4F801EF0DF11D81816081D9
:1010C000F0E88F9F601911248AED94E03D830E941F
:1010D0000701F394F3943D81ECCF81E00E94551118
:1010E00083E191E00197F1F706C2428163813630D6
:1010F00071F4B0E86B9FB0011124640F711DF80109
:1011000095814481F0E89F9F4019112406C030E882
:10111000639F401911246FEF7FEF0E94F206EBC12D
:10112000E0910001E7302CF08BEA91E00E94E5109D
:10113000E2C1D80112969C91129713964C91663099
:1011400089F4B0E84B9FA0011124490F511DD8012B
:1011500015963C91159714969C91B0E83B9F901979
:10116000112406C0F0E84F9F901911244FEF5FEF54
:10117000EF5FE093000135E0E302F0011124E05756
:10118000FD4F80835283418393832483B4C1209194
:101190000001121624F08FEF80930001ACC190E0A3
:1011A000622F022E000C770B35E0492F50E06417B8
:1011B000750774F0349FF001359FF00D1124E0574E
:1011C000FD4F4081481302C085E026C09F5FEDCFF0
:1011D00090E0FACF9830F8F4FA0131968E9FD00162
:1011E0008F9FB00D1124A057BD4F3C91849FF001FB
:1011F000859FF00D1124E057FD4F308311964D91DE
:101200005C9112975283418313963C9113973383D9
:1012100014963C9134839F5F492F50E06417750703
:10122000CCF621502093000166C1DA012C91119671
:101230008C91B0E88B9FC0011124820F911D009703
:1012400021F090935902809358028091730281118A
:1012500052C110E08EEE810F823028F466E070E01B
:10126000812F0E9406041F5F1431A1F781E0809353
:1012700073021092E3021092E20210925A0310924B
:101280007C0310925803809357031092320361E05D
:1012900082E10E94930C61E083E10E94930C8091B3
:1012A000B9008E7F8093B9008091B9008D7F8093C3
:1012B000B90088E48093B80085E48093BC001BC12A
:1012C000653008F418C1FA01F080D180E280C38053
:1012D00014818EEF8F0D823108F00DC1EF2DF0E0FB
:1012E000E45AFD4F20812C30B0F430E0F901EE0FCC
:1012F000FF1F2E0F3F1FF901E55FFA4F208130E0FD
:10130000F901EE0FFF1F2E0F3F1FF901EA51FB4FAE
:10131000808186FDECC0F0E81F9FA00111244C0DD8
:10132000511D20E8E29EB00111246D0D711D8F2D1D
:101330000E94930364E070E08F2D0E940604DBC0DE
:10134000623008F4D8C0DA012C9111968C91B0E883
:101350008B9FC0011124820F911D009711F481E031
:1013600090E09093020180930101C5C0623008F4BF
:10137000C2C0FA01618170E03230A1F08281F0E8F0
:101380008F9FC0011124682B792B333059F0DA017B
:1013900013968C9190E090E4899F902D88271124DA
:1013A000682B792BF80180810E945402A4C011306F
:1013B000E1F583E00E94481188E00E944811123153
:1013C00030F484E00E9448118EE00E94481180EFC2
:1013D000810F823030F486E00E94481181E00E9443
:1013E00048118FE70E9448111F5F1231C1F112317D
:1013F00090F480E00E94481181E00E9448118BE047
:101400000E94481181E00E94481181E00E94481129
:1014100081E00E94481184EF810F863040F682E01F
:101420000E9448118AE00E9448118DEF810F82309E
:1014300008F4BFCF89EF810F833008F6BACF662357
:1014400009F459C0DA010C9180EF0E9448118EE630
:101450000E944811802F0E944811043120F087EF2C
:101460000E94481148C010E0F801E356FB4F80810C
:101470000E944811000F111FF801EF54FB4F7F012C
:1014800080818F770E944811D7018D919C919C019A
:101490002078232B39F0880F892F881F990B8F779D
:1014A0000E944811F801EF54FB4F808191819C010B
:1014B0002227307C232B99F2990F880B990F982FB4
:1014C000881F8F770E944811CACF80EF0E94481171
:1014D0008AE60E94481112EF163010F4812F01C0E5
:1014E0008FE70E9448111F5F1630B1F7B8CF8F2DDC
:1014F0000E94A40010CF0F900F900F900F900F90AC
:10150000DF91CF911F910F91FF90EF90DF90CF90DF
:101510000895CF92DF92EF92FF920F931F93CF9394
:10152000DF936C017A018B01C0E0D0E0CE15DF05BE
:1015300089F0D8016D918D01D601ED91FC9101905A
:10154000F081E02DC6010995892B11F47E0102C0BE
:101550002196ECCFC701DF91CF911F910F91FF90A2
:10156000EF90DF90CF900895FC01538D448D252F8F
:1015700030E0842F90E0821B930B541710F0CF962D
:10158000089501970895FC01918D828D981761F05F
:10159000828DDF01A80FB11D5D968C91928D9F5FAA
:1015A0009F73928F90E008958FEF9FEF0895FC0155
:1015B000918D828D981731F0828DE80FF11D858D08
:1015C00090E008958FEF9FEF08958DE793E00E94DC
:1015D000B20B21E0892B09F420E0822F08950E94AC
:1015E000C918EF92FF920F931F93CF93DF93EC01F3
:1015F00081E0888F9B8D8C8D981305C0E889F989CF
:10160000808185FD24C0F62E0B8D10E00F5F1F4FEB
:101610000F731127E02E8C8DE8120CC00FB607FC5B
:10162000FACFE889F989808185FFF5CFCE010E9444
:10163000720CF1CF8B8DFE01E80FF11DE35AFF4FC5
:10164000F0820B8FEA89FB898081806207C0EE8976
:10165000FF896083E889F98980818064808381E0E3
:1016600090E0DF91CF911F910F91FF90EF9008953F
:10167000CF93DF93EC01888D8823C9F0EA89FB8939
:10168000808185FD05C0A889B9898C9186FD0FC030
:101690000FB607FCF5CF808185FFF2CFA889B98905
:1016A0008C9185FFEDCFCE010E94720CE7CFDF91C8
:1016B000CF9108951F920F920FB60F9211242F937E
:1016C0003F934F935F936F937F938F939F93AF93CA
:1016D000BF93EF93FF938DE793E00E94720CFF910D
:1016E000EF91BF91AF919F918F917F916F915F919A
:1016F0004F913F912F910F900FBE0F901F90189513
:101700001F920F920FB60F9211242F938F939F93D6
:10171000EF93FF93E0918D03F0918E038081E09130
:101720009303F091940382FD12C0908180919603FF
:101730008F5F8F7320919703821751F0E09196038A
:10174000F0E0E358FC4F958F8093960301C08081B1
:10175000FF91EF919F918F912F910F900FBE0F905E
:101760001F901895FC01918D228D892F90E0805C4F
:101770009F4F821B91098F739927089580E090E015
:10178000892B29F00E94E50A81110C94000008952C
:101790003FB7F89480912E0390912F03A0913003CE
:1017A000B091310326B5A89B05C02F3F19F00196D3
:1017B000A11DB11D3FBFBA2FA92F982F8827820FD7
:1017C000911DA11DB11DBC01CD0142E0660F771F27
:1017D000881F991F4A95D1F70895E0918402F091EE
:1017E0008502309709F009940895862F642FE091BF
:1017F0008202F0918302309711F0A90109940895B3
:101800000895862FE0917A02F0917B02309711F0D3
:10181000BA0109940895862FE0917C02F0917D022F
:10182000309711F0BA0109940895862FE09176025D
:10183000F0917702309711F0BA0109940895862F3C
:10184000E0917802F0917902309711F0BA01099491
:101850000895862FE0917E02F0917F02309711F07B
:10186000BA0109940895862FE0918002F0918102D7
:10187000309711F0BA010994089585ED8093BC006A
:101880008091BC0084FDFCCF109258030895089508
:10189000E091E3028091E202E81730F4F0E0EE53C9
:1018A000FD4F808190E008958FEF9FEF0895909114
:1018B000E3028091E202981750F4E92FF0E0EE5332
:1018C000FD4F208130E09F5F9093E30202C02FEF35
:1018D0003FEFC9010895009721F0805C9F4F0C9461
:1018E0001E110895FC01848DDF01A80FB11DA35ABC
:1018F000BF4F2C91848D90E001968F739927848F30
:10190000A689B7892C93A089B1898C9180648C9326
:10191000938D848D981306C00288F389E02D808111
:101920008F7D8083089590E0FC01EC56FF4F349149
:10193000FC01EA53FF4F2491FC01EE54FF4FE49168
:10194000EE2309F43BC0332339F1333091F038F4FE
:101950003130A9F0323001F584B58F7D12C03730B7
:1019600091F03830A1F03430B9F4809180008F7D4F
:1019700003C0809180008F77809380000DC084B574
:101980008F7784BD09C08091B0008F7703C08091AC
:10199000B0008F7D8093B000F0E0EE0FFF1FE657A0
:1019A000FF4FA591B4918FB7F894EC91611103C0EA
:1019B00020952E2301C02E2B2C938FBF0895CF93FB
:1019C000DF9390E0FC01EA53FF4F2491FC01EE54B9
:1019D000FF4F8491882361F190E0880F991FFC01EB
:1019E000E058FF4FC591D491FC01E657FF4FA591F8
:1019F000B491611109C09FB7F89488812095822322
:101A00008883EC912E230BC0623061F49FB7F89469
:101A10003881822F809583238883EC912E2B2C9301
:101A20009FBF06C08FB7F894E8812E2B28838FBF05
:101A3000DF91CF9108958E3008F08E5087708064CA
:101A400080937C0080917A00806480937A008091FA
:101A50007A0086FDFCCF809178002091790090E09B
:101A6000922B08958F929F92AF92BF92CF92DF9266
:101A7000EF92FF926B017C010E94C80B4B015C014D
:101A8000C114D104E104F104F1F00E94C80BDC019F
:101A9000CB0188199909AA09BB09883E9340A10581
:101AA000B10570F321E0C21AD108E108F10888EE0F
:101AB000880E83E0981EA11CB11CC114D104E1045E
:101AC000F10419F7DDCFFF90EF90DF90CF90BF903A
:101AD000AF909F908F9008951F920F920FB60F9224
:101AE00011242F933F938F939F93AF93BF93809134
:101AF0008C0290918D02A0918E02B0918F02309154
:101B00002D0323E0230F2D3720F40196A11DB11DD5
:101B100005C026E8230F0296A11DB11D20932D03B9
:101B200080938C0290938D02A0938E02B0938F02CB
:101B300080912E0390912F03A0913003B091310337
:101B40000196A11DB11D80932E0390932F03A093A6
:101B50003003B0933103BF91AF919F918F913F912B
:101B60002F910F900FBE0F901F9018951F920F92FC
:101B70000FB60F9211240F900FBE0F901F90189563
:101B80002F923F925F926F927F928F929F92AF922D
:101B9000BF92CF92DF92EF92FF920F931F93CF935A
:101BA000DF937C013901DA015C90232B19F4662460
:101BB0006A94762C8A011A01260E371EC0E0D0E006
:101BC000812C912C87E0C82ED12C0215130509F425
:101BD00044C08614970408F068C05801F70180815A
:101BE0009181FC01A081B181F80121918F01E22F47
:101BF0000C2E01C0EE0F0A94EAF7652D6E2B6F775D
:101C0000ED91FC9109958FEF881A980AD5016C9196
:101C100070E0C6018C1B9D0B02C0759567958A9577
:101C2000E2F7562E2196C730D10578F28614970434
:101C300061F2F70180819181DC01ED91FC91652DCC
:101C40006F770190F081E02D0995BFEF8B1A9B0A09
:101C5000551C5524551C2797E6CF209731F1861443
:101C6000970418F5F70180819181DC01ED91FC91D9
:101C700061E070E001C0660FCA95EAF76150652126
:101C80000190F081E02DDF91CF911F910F91FF9096
:101C9000EF90DF90CF90BF90AF909F908F907F900C
:101CA0006F905F903F902F900994DF91CF911F919B
:101CB0000F91FF90EF90DF90CF90BF90AF909F90EB
:101CC0008F907F906F905F903F902F900895DF925C
:101CD000EF92FF920F931F93CF93DF93FC01E05895
:101CE000FF4FD080DD2009F45CC031960081118166
:101CF000D8011196FC901197EC90EC01C05CDF4F7D
:101D000088819981009709F44CC0DC01ED91FC9128
:101D10000190F081E02D60EF099588819981DC01C7
:101D2000ED91FC910190F081E02D69E709958881A2
:101D30009981DC01ED91FC910190F081E02D6E2DF7
:101D4000099588819981DC01ED91FC910190F081E8
:101D5000E02D6F2D09957801B2E0EB0EF11C0D0D11
:101D6000111DE016F10661F020E030E0A70161E00E
:101D700070E0CE010E94C00DEFEFEE1AFE0AF1CF27
:101D800088819981DC01ED91FC910190F081E02D39
:101D900067EFDF91CF911F910F91FF90EF90DF9050
:101DA0000994DF91CF911F910F91FF90EF90DF90F9
:101DB0000895009711F00C94670E08951F920F92EA
:101DC0000FB60F9211242F933F934F935F936F930E
:101DD0007F938F939F93AF93BF93EF93FF938091E4
:101DE000B900887F803609F49CC068F5883209F410
:101DF0005BC090F4803109F454C038F4882309F4AE
:101E0000F6C0883009F44DC0F6C0883109F44CC0E2
:101E1000803209F45DC0EFC0803409F468C048F432
:101E2000803309F455C0883309F0E5C08093560328
:101E3000D8C0803509F44FC0883509F45DC08834B6
:101E400009F0D9C0D6C0883909F4C7C0A8F48837CA
:101E500009F467C038F4883609F463C0803709F4A0
:101E600060C0C9C0883809F4B8C0803909F45FC0BF
:101E7000803809F0C0C05BC0803B09F486C038F4EC
:101E8000803A09F466C0883A09F47FC0B4C0803C47
:101E900009F4A7C0883C09F4A4C0883B09F48AC0AF
:101EA000AAC08091330310C09091550380915403D0
:101EB000981770F5E091550381E08E0F80935503DC
:101EC000F0E0EC5CFC4F80818093BB0085EC86C029
:101ED000809356038EC0E091550381E08E0F80936E
:101EE00055038091BB00F0E0EC5CFC4F8083909147
:101EF0005503809154036EC0E091550381E08E0F2D
:101F0000809355038091BB00F0E0EC5CFC4F808334
:101F10008091570381116DC081E08093320384EA80
:101F200061C083E08093580310922A03CFCF809141
:101F30002A03803208F051C0E0912A0381E08E0F1D
:101F400080932A038091BB00F0E0E65FFC4F808322
:101F5000BDCF85EC8093BC001092580380912A037A
:101F6000803230F4E0912A03F0E0E65FFC4F10820B
:101F700060912A0370E0E0910803F09109038AE080
:101F800093E0099510922A0336C084E080935803A9
:101F90001092070310920603E0910403F0910503E9
:101FA000099580910603811105C081E080930603A5
:101FB0001092E402E091070381E08E0F8093070303
:101FC000F0E0EC51FD4F80818093BB0090910703BE
:101FD00080910603981708F479CF85E88093BC00B8
:101FE0000AC085EC8093BC001092580304C0109284
:101FF00056030E943D0CFF91EF91BF91AF919F91CD
:102000008F917F916F915F914F913F912F910F90A1
:102010000FBE0F901F90189540910603262F30E0B9
:10202000240F311D21323105DCF420915803243076
:10203000C9F4FC0180E090E0861758F43091060363
:102040002191DC01AC51BD4FA30FB11D2C93019622
:10205000F3CF80910603680F6093060380E0089534
:1020600081E0089582E008951F93CF93DF9300D01D
:10207000CDB7DEB7182F7A83698380915A04909187
:102080005B04009709F44EC0DC01ED91FC91103126
:10209000A8F46115704490F4612F606E0190F08196
:1020A000E02D099522E030E0AE014F5F5F4F62E026
:1020B00070E08AE594E00E94C00D34C00190F08188
:1020C000E02D60EF099580915A0490915B04DC014A
:1020D000ED91FC910190F081E02D6FE609958091E2
:1020E0005A0490915B04DC01ED91FC910190F08128
:1020F000E02D612F099522E030E0AE014F5F5F4F88
:1021000062E070E08AE594E00E94C00D80915A047C
:1021100090915B04DC01ED91FC910190F081E02D48
:1021200067EF09950F900F90DF91CF911F91089560
:10213000EF92FF920F931F93CF93DF93C82F80915D
:102140005A0490915B040097C9F17A018B01DC017C
:10215000ED91FC910190F081E02D60EF0995809167
:102160005A0490915B04DC01ED91FC910190F081A7
:10217000E02D6C2F0995E7010E0D1F1DC017D1072B
:1021800059F020E030E0AE0161E070E08AE594E0D3
:102190000E94C00D2196F2CF80915A0490915B0469
:1021A000DC01ED91FC910190F081E02D67EFDF9172
:1021B000CF911F910F91FF90EF900994DF91CF91F4
:1021C0001F910F91FF90EF900895FC010190002066
:1021D000E9F73197BF01681B790BAC0181E70C94DB
:1021E00098100F931F9390E0FC01EA53FF4F649106
:1021F000FC01EE54FF4FE491F0E0EE0FFF1FE855B5
:10220000FF4F8591949100E412E42FE030E0462FD7
:102210000E940112611571058105910549F0DC01EB
:10222000CB010196A11DB11DBC01CD019F7003C062
:1022300060E070E0CB011F910F910895CF93DF9381
:10224000FC01A081B181109701F1EC01ED91FC91AD
:1022500011970190F081E02D69EFCD0109958881FA
:102260009981DC01ED91FC910190F081E02D62E01B
:10227000099588819981DC01ED91FC910190F081B3
:10228000E02D65E0DF91CF910994DF91CF91089522
:10229000A0919804B0919904ED91FC91119701904F
:1022A000F081E02D682FCD010994382F20917C0317
:1022B00090917B03213208F049C08091580381112D
:1022C000FCCF42E040935803309357033FEF3093E5
:1022D00056031092550320935403ABE5B3E044E357
:1022E00053E0FA013E2F341B321718F43D9131931D
:1022F000F9CF1092330320913303990F922B9093CF
:10230000330390913203913061F410923203909133
:1023100033039093BB009091BC0093FDF8CF95ECF4
:1023200001C095EE9093BC00909158039230E1F378
:10233000909156039F3F79F080915603803241F08F
:1023400080915603803331F084E005C081E003C002
:1023500082E001C083E010925A0310927C03109235
:10236000590308951F93CF93DF93182FEB018091AA
:102370005F04909160046817790748F460915D04E8
:1023800070915E04C60FD71F188380E018C0E091DB
:102390008C04F0918D04309711F481E010C081E03D
:1023A00080935C04809178049091790409958091E0
:1023B0005F0490916004C817D90778F7DFCFDF91E9
:1023C000CF911F910895CF93DF93EC01FB0120E0A3
:1023D00030E0CF01861B970B2C173D0778F4DB010B
:1023E000A20FB31F9C91908311964C91479544275F
:1023F0004795942B91932E5F3F4FEBCFDF91CF9179
:102400000895CF92DF92EF92FF920F931F93E82FE0
:10241000F92F05C0015011092109310961F190819D
:1024200096239417B9F305C0015011092109310908
:1024300011F1908196239413F7CFC12CD12CE12C6C
:10244000F12C0AC08FEFC81AD80AE80AF80A0C154E
:102450001D052E053F0579F080818623841791F3B1
:102460006C2D7D2D8E2D9F2D1F910F91FF90EF9044
:10247000DF90CF90089560E070E080E090E01F91E1
:102480000F91FF90EF90DF90CF900895789484B5EE
:10249000826084BD84B5816084BD85B5826085BD60
:1024A00085B5816085BD80916E00816080936E00EE
:1024B00010928100809181008260809381008091E0
:1024C0008100816080938100809180008160809391
:1024D00080008091B10084608093B1008091B00051
:1024E00081608093B00080917A00846080937A004C
:1024F00080917A00826080937A0080917A00816076
:1025000080937A0080917A00806880937A0010929C
:10251000C10085E180939A0480919B0490919C0472
:102520000E943118C0919A04D0E0CE0101960E9419
:102530009C1790939C0480939B04FC01EC0FFD1F5F
:10254000108212E0DC011C932BE011962C93AE015B
:102550004250510967EF71E002960E94CE1884E55F
:1025600092E0909381028093800288EB91E09093B7
:102570007F0280937E0281ED93E090937D028093B1
:102580007C028BEC96E090937B0280937A0286E04B
:1025900094E090937902809378028EE793E0909391
:1025A00077028093760280EB97E09093830280938A
:1025B00082028DE795E09093850280938402E091FA
:1025C0008D03F0918E031083E0918D03F0918E03C3
:1025D0001082E0918903F0918A031082E0918B03CD
:1025E000F0918C0380E1808310929503E091910338
:1025F000F091920386E08083E0918F03F091900345
:10260000808180618083E0918F03F09190038081CD
:1026100088608083E0918F03F091900380818068CF
:102620008083E0918F03F091900380818F7D808380
:102630008091D904811150C061E08DE00E94DF0CCF
:1026400062ED70E080E090E00E94320D61E08DE08C
:102650000E94930C68E270E080E090E00E94320DEE
:1026600060E08DE00E94930C62ED70E080E090E00D
:102670000E94320D61E08DE00E94930C68E270E0F0
:1026800080E090E00E94320D60E08DE00E94930CAB
:102690006AEF70E080E090E00E94320DC0E062EDF1
:1026A00070E080E090E00E94320D61E08DE00E94D9
:1026B000930C68E270E080E090E00E94320D60E0F0
:1026C0008DE00E94930CCF5FC53049F76DE770E055
:1026D00080E090E00E94320D8DE793E090939904A2
:1026E0008093980490935B0480935A048AE594E065
:1026F0000E941E118AE194E00E94670E0E947D05EF
:10270000EE24E394C2E0D0E001E010E025E0D22E18
:1027100080918902882349F069B1809186026823FB
:102720006C7F40E080E00E94890680918A028823C5
:1027300079F063B196B1B0E49B9FC00111246F732F
:10274000862B60918702682340E081E00E94890621
:1027500080918B028823E1F066B16C736695669573
:1027600080918802682340E082E00E94890610C0C0
:102770008091980490919904DC01ED91FC91028480
:10278000F385E02D09959C018F3FBFEF9B0771F406
:102790008091980490919904DC01ED91FC91008462
:1027A000F185E02D0995892B19F7BEC1982F8091ED
:1027B0006504882309F492C0973F09F07EC0109207
:1027C0006504A0915D04B0915E046C916137C1F124
:1027D000693709F05CC0E0919204F091930430975E
:1027E000B9F280916604909167048330910538F4C2
:1027F00020E030E040E050E060E070E01BC0BD0150
:102800006D5F7F4F03970E94E311BC016D5F7F4FA7
:1028100080E00E94B211E0915D04F0915E049F019E
:102820002D5F3F4F428150E0618170E0E091920462
:10283000F091930480917404909175040995A8CF48
:1028400080918E0490918F04892B09F4A1CFBD0152
:102850006F5F7F4F809166049091670401970E949B
:10286000E311BC016F5F7F4F80E00E94B211609165
:102870005D0470915E046F5F7F4FE0918E04F09174
:102880008F0480917A0490917B04099581CFE09127
:102890009004F0919104309709F47ACF9D012F5F55
:1028A0003F4F409166045091670441505109809117
:1028B0007C0490917D0409956BCF609166047091C2
:1028C0006704822F0E94B211809166049091670480
:1028D000019690936704809366045ACF60916304D5
:1028E000709164046115710509F4AFC027FDADC096
:1028F000615071097093640460936304822F0E9495
:10290000B2118091630490916404892B09F040CF47
:1029100080916104882309F43BCF803D09F47FC096
:1029200030F4803939F1803C09F466C08BC0843FB3
:10293000E1F1853F09F44DC0803E09F083C0E0918C
:102940008004F0918104309709F47CC0A0915D046B
:10295000B0915E048C9111964C9150E020E8829FDA
:10296000400D511D11246091620480916804909182
:10297000690467C0E0918204F0918304309709F400
:1029800061C0A0915D04B0915E048C9111964C9150
:1029900050E090E8899F400D511D11246091620420
:1029A00080916A0490916B044CC0E0918804F0918E
:1029B0008904309709F446C0A0915D04B0915E048B
:1029C0004C9150E011966C9180917004909171043B
:1029D00038C0E0918A04F0918B04309799F1A0916E
:1029E0005D04B0915E044C9150E011966C91809121
:1029F00072049091730425C0E0918404F0918504E1
:102A0000309701F1A0915D04B0915E044C9150E0CB
:102A10006091620480916C0490916D0412C0E09109
:102A20008604F0918704309769F0A0915D04B0911D
:102A30005E044C9150E06091620480916E0490912C
:102A40006F04099510926104A3CE903F30F4822F59
:102A50008F7080936204922F907F903F79F158F4A9
:102A6000903C29F118F49039E9F092CE903DF9F0BC
:102A7000903EC1F08DCE993F09F449C028F48CE016
:102A8000890F823078F084CE9F3F09F081CE10927A
:102A9000640410926304109261041092620480E056
:102AA00090E013C0D0936404C093630404C01093F7
:102AB000640400936304909361046ACEE092650419
:102AC000109267041092660463CE20915F043091E7
:102AD00060048217930748F4E0915D04F0915E046E
:102AE000E80FF91F10820196F0CF10926504109242
:102AF000670410926604E0919604F0919704309771
:102B000009F446CE80917E0490917F040BC0E09141
:102B10009404F0919504309709F43ACE80917604AC
:102B200090917704099534CE8FB7F89480908C02F9
:102B300090908D02A0908E02B0908F028FBF8092F5
:102B4000BE029092BF02A092C002B092C1028091D8
:102B5000BA029091BB02A091BC02B091BD0240911B
:102B600001015091020160E070E0881A990AAA0AF6
:102B7000BB0A481559056A057B0508F052C0840F49
:102B8000951FA61FB71F8093BA029093BB02A09314
:102B9000BC02B093BD028DE9A82E84E0B82E92EF5E
:102BA000F92EB5E0BF15B8F0F5018081823099F4B7
:102BB0008091B8029091B9020F2C02C0959587952B
:102BC0000A94E2F780FF07C08F2D0E941B0DBC0105
:102BD0008F2D0E943410F394FFEFAF1ABF0A26E046
:102BE000F212DFCF8091000187FD1BC0F12C2F2D49
:102BF00030E080910001082E000C990B821793079A
:102C000084F0D29EF001D39EF00D1124E057FD4FC9
:102C1000618172812481438180810E94F206F39454
:102C2000E6CF0E94BE0B74CD1092800310927F03FA
:102C300048EE53E060E070E04093810350938203DC
:102C400060938303709384038DE091E090937E03FF
:102C500080937D0385EC90E090938A0380938903B1
:102C600084EC90E090938C0380938B0380EC90E055
:102C700090938E0380938D0381EC90E0909390036A
:102C800080938F0382EC90E0909392038093910362
:102C900086EC90E0909394038093930310929603B4
:102CA0001092970310929803109299038AE194E08E
:102CB00010925B0410925A0490935E0480935D041A
:102CC00020E430E03093600420935F0410926104AC
:102CD00010926204109264041092630410926504CE
:102CE00010926704109266041092690410926804AE
:102CF00010926B0410926A0410926D0410926C048E
:102D000010926F0410926E0410927104109270046D
:102D10001092730410927204109279041092780445
:102D200010927B0410927A0410927D0410927C041D
:102D300010927F0410927E0410928D0410928C04E5
:102D400010925C0410929A0410929C0410929B04BE
:102D50001092D90423E33CE0309381042093800453
:102D600029E23CE030938304209382042BE03CE092
:102D7000309385042093840421E03CE03093870461
:102D8000209386042FE13CE030938904209388044B
:102D900025E13CE030938B0420938A0420E03CE062
:102DA00030938F0420938E0425EF3BE03093910401
:102DB0002093900429ED3EE03093930420939204F5
:102DC00090937504809374042BE63CE03093950453
:102DD0002093940490937704809376048DEE9BE087
:102DE00090939704809396041092DD041092DC0473
:102DF0004093DE045093DF046093E0047093E10499
:102E00008FE191E09093DB048093DA0480910A05CE
:102E1000ABE0B5E09FEF48EB5BE08C3078F48C934F
:102E2000282F30E0F901EE0FFF1F2E0F3F1FF90191
:102E3000EA51FB4F528341838F5F01C09C931396ED
:102E400025E0AF32B20749F780930A050895052EB1
:102E500097FB1EF400940E943E1757FD07D00E9476
:102E6000591707FC03D04EF40C943E17509540952B
:102E7000309521953F4F4F4F5F4F08959095809526
:102E8000709561957F4F8F4F9F4F08950E947B17DC
:102E9000A59F900DB49F900DA49F800D911D1124AE
:102EA0000895B7FF0C9446170E944617821B930B98
:102EB0000895A1E21A2EAA1BBB1BFD010DC0AA1F7B
:102EC000BB1FEE1FFF1FA217B307E407F50720F093
:102ED000A21BB30BE40BF50B661F771F881F991F0E
:102EE0001A9469F760957095809590959B01AC0157
:102EF000BD01CF010895A29FB001B39FC001A39F60
:102F0000700D811D1124911DB29F700D811D112422
:102F1000911D0895991B79E004C0991F961708F038
:102F2000961B881F7A95C9F780950895EE0FFF1FAD
:102F30000590F491E02D0994CF93DF9382309105B1
:102F400010F482E090E0E0913105F091320520E04C
:102F500030E0C0E0D0E0309711F140815181481756
:102F60005907C0F04817590761F48281938120976F
:102F700019F09B838A832BC090933205809331058F
:102F800026C02115310519F04217530718F49A018C
:102F9000BE01DF01EF010280F381E02DDCCF2115BE
:102FA000310509F1281B390B2430310590F41296B4
:102FB0008D919C9113976115710521F0FB0193830D
:102FC000828304C09093320580933105FD013296CF
:102FD00044C0FD01E20FF31F819391932250310908
:102FE0002D933C933AC020912F0530913005232B2F
:102FF00041F4209105013091060130933005209372
:103000002F0520910301309104012115310541F470
:103010002DB73EB74091070150910801241B350B95
:10302000E0912F05F0913005E217F307A0F42E1B75
:103030003F0B2817390778F0AC014E5F5F4F24171C
:10304000350748F04E0F5F1F5093300540932F0512
:103050008193919302C0E0E0F0E0CF01DF91CF9146
:1030600008950F931F93CF93DF93009709F48CC0BB
:10307000FC013297138212820091310510913205C2
:103080000115110581F420813181820F931F209158
:103090002F05309130052817390779F5F093300561
:1030A000E0932F0571C0D80140E050E0AE17BF0794
:1030B00050F412962D913C911397AD0121153105D5
:1030C00009F1D901F3CF9D01DA01338322836081B5
:1030D0007181860F971F8217930769F4EC0128818D
:1030E0003981260F371F2E5F3F4F318320838A811E
:1030F0009B8193838283452B29F4F0933205E093DF
:10310000310542C01396FC93EE931297ED0149915D
:1031100059919E01240F351FE217F30771F4808146
:103120009181840F951F029611969C938E938281B4
:10313000938113969C938E931297E0E0F0E0D80170
:1031400012968D919C911397009719F0F8018C01BC
:10315000F6CF8D919C9198012E5F3F4F820F931F68
:1031600020912F05309130052817390769F43097E1
:1031700029F4109232051092310502C01382128296
:103180001093300500932F05DF91CF911F910F9180
:10319000089581E090E0F8940C94DD18FB01DC01C7
:1031A0004150504048F001900D920020C9F701C0F5
:0E31B0001D9241505040E0F70895F894FFCF73
:1031BE00FF130000003305800000000000F10A89B3
:1031CE000AB40A380BB20BC30AD70A000000000774
:1031DE0001D700A100470C9800570C480C4D6178A0
:1031EE0020736572766F73206174746163686564B1
:1031FE0000556E6B6E6F776E2070696E206D6F640A
:10320E0065004932433A20546F6F206D616E79200C
:10321E0062797465732072656365697665640049C9
:10322E0032433A20546F6F20666577206279746559
:10323E00732072656365697665640031302D62694D
:10324E00742061646472657373696E67206E6F7447
:10325E0020737570706F7274656400746F6F206D7B
:10326E00616E79207175657269657300453A5C50BF
:10327E0041582056534F5C4D616B65436F646553E7
:10328E00616D706C655C426C6F636B436F64655C03
:10329E004173736574735C4D616B65436F64654612
:1032AE0069726D6174615C4D616B65436F646546F7
:0C32BE0069726D6174612E696E6F000012
:00000001FF
